:0300000002059561
:0C059500787FE4F6D8FD7581520205DC89
:1009DE0020B00B120AC2120AD212024480FB20B1BE
:1009EE000B120AC2120AD212039280FB20B2E1123B
:0A09FE000AC2120AD212001E80FB8A
:100A9900039F250D9949411F010931029E240C9894
:050AA90048401E00089A
:10098100082A0000000000000000081D000000000F
:1009910000000000010A00010B19010C00012900EF
:0309A10001320020
:0C06210074FD251BF51B74FF351AF51A3B
:10062D00AE4BAF4C7C007D0A12050AEF4E7004F5FF
:10063D0046800EEF64014E700575460180037546C8
:10064D0002E54614601814602B2402704112083222
:10065D007C007D0812055F8D2585252680111208E9
:10066D00327C007D0712055F8D25E52504F5268575
:10067D00252780171208327C007D0612055F8D2517
:0E068D00E52504F526E5252402F52775280746
:01069B00223C
:100A3200753901753A01753B01E4F53CF53DF53E2A
:100A420075330175340275350375360375370275D2
:090A52003801F53FF54002062DC4
:100A0800751402751502751601751701E4F518F5C8
:100A180019750E05750F0675100575110675120501
:0A0A2800751306F51AF51B02062DE2
:10077A007F08782AE4F608DFFCE4FF74332FF8E6F2
:10078A00242AF8C000E6FE74392FF8E6FD7401A8A1
:10079A0005088002C333D8FC4ED000F60FBF06DB33
:1007AA00E4FF74252FF8E6242AF8C000E6FEAD28F7
:1007BA007401A805088002C333D8FC4ED000F60F96
:0C07CA00BF03DF7B007A00792A0209B32C
:1007D6007F08782AE4F608DFFCE4FF740E2FF8E6BB
:1007E600242AF8C000E6FE74142FF8E6FD7401A86A
:1007F60005088002C333D8FC4ED000F60FBF06DBD7
:10080600E4FF74252FF8E6242AF8C000E6FEAD289A
:100816007401A805088002C333D8FC4ED000F60F39
:0C082600BF03DF7B007A00792A0209B3CF
:100A8100E53414F533E53404F535E53414F53885EA
:080A91003437E53404F5362288
:10090A00E50C701DE50F14F50EE50F14F510850FB3
:10091A0011E50F14F512850F13751402751601806F
:10092A0015850F0E850F10850F11850F12850F1370
:0F093A00751403751603751701E4F518F51922E6
:10070D00E5086F6067EFB40900505F90071FF82888
:10071D00287302073A02073E0207520207560207E4
:10072D003A02075A02076602076A02076E150B8026
:10073D0039050BE5097033E532C39405502C752945
:10074D000105328025153480210534801D050BE50A
:10075D0009B40416630CFF8011150F800D050F8071
:0C076D0009E508640860038508098F088E
:01077900225D
:10024400E4F544F545120A32D3E54C941DE54B948C
:10025400004002C28CAF0D12070D120A81C3E528BB
:1002640064809480500312062DE50AC3950B402345
:10027400E4F50A15280545E54570020544D39404C0
:10028400E5449400400DE4F544F5450540E540702F
:1002940002053FD3E53464809486401074FD254004
:1002A400F54074FF353FF53F15348017C3E53464DA
:1002B400809481500E74FD2540F54074FF353FF560
:1002C4003F0534E4F542E4F54374332542F8E6FF90
:1002D40074252543F8E6B5072174392542F8E6B5B7
:1002E4002818E529700E74FD2540F54074FF353F4C
:1002F400F53F8003E4F52912062D0543E543C39435
:100304000340C60542E542C3940640BAC3E53F64D0
:100314008094805005E4F53FF540AE4BAF4C7C0033
:100324007D0A12050AED4C702DC3E54C941EE54B75
:1003340094005022900AA3E493F51EAE4BAF4C7C7C
:10034400007D0A12050A749A2FF582740A3EF58319
:10035400E493F51D8032AE3FAF407C007D0A120568
:100364005F74992DF582740A3CF583E493F51DAE10
:100374003FAF407C007D0A12055F74992FF58274AB
:0E0384000A3EF583E493F51E12077A02024C3E
:10039200E4F544F545120A08D3E54C941DE54B9467
:1003A200004002C28CAF0D12070D12090AC3E528E4
:1003B20064809480500312062DE50AC3950B4023F6
:1003C200E4F50A15280545E54570020544D3940471
:1003D200E5449400400DE4F544F545051BE51B702A
:1003E20002051AD3E50F64809487401074FD251B23
:1003F200F51B74FF351AF51A150F8029C3E50F6432
:100402008094815004E50C600EC3E50F64809480F3
:100412005013E50CB4010E74FD251BF51B74FF355A
:100422001AF51A050FE4F542E4F543740E2542F875
:10043200E6FF74252543F8E6B5070C74142542F847
:10044200E6B528031206210543E543C3940340DBC6
:100452000542E542C3940640CFC3E51A6480948006
:100462005005E4F51AF51BAE4BAF4C7C007D0A1229
:10047200050AED4C702DC3E54C941EE54B940050DB
:1004820022900AA3E493F520AE4BAF4C7C007D0A88
:1004920012050A74A52FF582740A3EF583E493F5DA
:1004A2001F8032AE1AAF1B7C007D0A12055F74A456
:1004B2002DF582740A3CF583E493F51FAE1AAF1B47
:1004C2007C007D0A12055F74992FF582740A3EF54D
:0B04D20083E493F5201207D602039A82
:10001E00E4F544F545120A32120A08D3E54C941D54
:10002E00E54B94004002C28CAF0D12070D120A81EF
:10003E0012090AC3E52864809480500312062DE548
:10004E000AC3950B402BE4F50A15280545E54570C6
:10005E00020544D39404E54494004015E4F544F5B8
:10006E00450540E5407002053F051BE51B70020586
:10007E001AD3E53464809486401074FD2540F54013
:10008E0074FF353FF53F15348017C3E53464809413
:10009E0081500E74FD2540F54074FF353FF53F0548
:1000AE0034D3E50F64809487401074FD251BF51B37
:1000BE0074FF351AF51A150F8029C3E50F64809465
:1000CE00815004E50C600EC3E50F648094805013DC
:1000DE00E50CB4010E74FD251BF51B74FF351AF5E6
:1000EE001A050FE4F542E4F54374332542F8E6FFB2
:1000FE0074252543F8E6B5072174392542F8E6B58F
:10010E002818E529700E74FD2540F54074FF353F23
:10011E00F53F8003E4F52912062D0543E543C3940C
:10012E000340C60542E542C3940640BAE4F542E4F4
:10013E00F543740E2542F8E6FF74252543F8E6B51F
:10014E00070C74142542F8E6B52803120621054360
:10015E00E543C3940340DB0542E542C3940640CF1A
:10016E00C3E53F648094805005E4F53FF540C3E558
:10017E001A648094805005E4F51AF51BAE4BAF4C13
:10018E007C007D0A12050AED4C703EC3E54C941EB0
:10019E00E54B94005033900AA3E493FBF520AE4B4D
:1001AE00AF4C7C007D0A12050A74A52FF582740AE5
:1001BE003EF583E493F51F8B1E749A2FF582740A15
:1001CE003EF583E493F51D8064AE3FAF407C007D29
:1001DE000A12055F74992DF582740A3CF583E49337
:1001EE00F51DAE3FAF407C007D0A12055F74992F5E
:1001FE00F582740A3EF583E493F51EAE1AAF1B7CAE
:10020E00007D0A12055F74A42DF582740A3CF583F5
:10021E00E493F51FAE1AAF1B7C007D0A12055F74C6
:10022E00992FF582740A3EF583E493F52012077A2E
:06023E001207D6020029A0
:08000E007F027EEFDEFEDFFC45
:0100160022C7
:100AAE00AD07AC06ED1DAE0470011C4E60051200C4
:040ABE000E80F12293
:0309A400015206F7
:10087F0020B005E4F552803B20B10575520180335D
:10088F0020B205755202802B20B3057552038023C9
:10089F0020A005755204801B20A1057552058013F9
:1008AF0020A605755206800B20A7057552078003F9
:0608BF00755208AF522241
:0B09A700014D0002490000024B00005F
:100AC200438901758AF0758CD8D28CD2A9D2AF2213
:03000B000208C523
:1008C500C0E0C0F0C083C082C0D075D000C000C0F9
:1008D50001C002C003C004C005C006C007758AF088
:1008E500758CD812087F8F0D050AD007D006D00564
:1008F500D004D003D002D001D000D0D0D082D08394
:05090500D0F0D0E0324B
:100AD200438901758BB0758D3CD28ED2ABD2AF22D9
:03001B0002069C3E
:10069C00C0E0C0F0C083C082C0D075D000C000C024
:1006AC0001C002C003C004C005C006C007758BB0F2
:1006BC00758D3C759000AF4D120949054DE54DD334
:1006CC0094034003754D00054AE54A70020549C381
:1006DC0094C8E5499400400E054CE54C7002054B5E
:1006EC00754900754A00D007D006D005D004D00358
:1006FC00D002D001D000D0D0D082D083D0F0D0E0C6
:01070C0032BA
:10094900EF14601414601B14601E24037022C2A2E9
:10095900C2A3C2A4D2A58018C2A2C2A3D2A4C2A50E
:10096900800EC2A2D2A38004D2A2C2A3C2A4C2A5ED
:08097900741D2FF8E6F5902231
:080003007FBFDFEFF7FBFDFEFC
:100A5B00C2B6C2B5E4FEEFC4131313540124FF92C4
:100A6B00B4EF25E0FFD2B60000C2B60EBE08E7D247
:050A7B00B50000C2B54A
:010A80002253
:0609B3008B468A478948CB
:1009B900E4FDE4FF120A5BED90000393F580AB467A
:1009C900AA47A9488D827583001204DDFF120A5BCC
:0409D9000DBD08DE6A
:0109DD0022F7
:1005A1000209DEE493A3F8E493A34003F68001F289
:1005B10008DFF48029E493A3F85407240CC8C3335B
:1005C100C4540F4420C8834004F456800146F6DF2A
:1005D100E4800B0102040810204080900981E47E30
:1005E100019360BCA3FF543F30E509541FFEE4931F
:1005F100A360010ECF54C025E060A840B8E493A3E6
:10060100FAE493A3F8E493A3C8C582C8CAC583CA10
:10061100F0A3C8C582C8CAC583CADFE9DEE780BEC8
:0109B2000044
:1004DD00BB010CE58229F582E5833AF583E02250D4
:1004ED0006E92582F8E622BBFE06E92582F8E2221E
:0D04FD00E58229F582E5833AF583E4932238
:10050A00BC000BBE0029EF8DF084FFADF022E4CCD5
:10051A00F875F008EF2FFFEE33FEEC33FCEE9DEC9E
:10052A00984005FCEE9DFE0FD5F0E9E4CEFD22EDE4
:10053A00F8F5F0EE8420D21CFEADF075F008EF2F2E
:10054A00FFED33FD4007985006D5F0F222C398FD1F
:05055A000FD5F0EA22BC
:10055F00C2D5EC30E709B2D5E4C39DFDE49CFCEEB7
:10056F0030E715B2D5E4C39FFFE49EFE12050AC320
:10057F00E49DFDE49CFC800312050A30D507C3E41B
:06058F009FFFE49EFE2226
:10083200AC4EAD4FAE50AF517810EC4D4E4F7004F0
:100842007CA57DA5C3EC13FCED13FDEE13FEEF13A7
:10085200FF5010EC64CCFCED644CFDEE644EFEEFF8
:1008620064CEFFD8DF8C4E8D4F8E508F51EE547F69
:0D087200FE228E4E8F4F74A5F550F55122D9
:00000001FF
